:040000008A11112828
:10000800FE00030EF2000408F3000A08F40083124D
:1000180003137F08F5008A1113288A119F288C1E64
:10002800162817282628181D1A281B2820281A08D9
:10003800F0007008F80026281A08F0007008F70089
:10004800262826280B1E29282A283E288B1C2D28DE
:100058002E283E288230F100DD30F000F00B3228E7
:10006800F10B322837288B1079140130F000700812
:10007800FA073E28750883120313FF0074088A00E4
:1000880073088400720E8300FE0E7E0E0900703025
:10009800831603138F00831203179E019F01831693
:1000A800031385010515FF3086008701D8308B00C2
:1000B80081018A117A208A1179106228791C6528B1
:1000C80066286228791083160313181464308A117D
:1000D80091208A118316031318107A088A11912027
:1000E8008A116228622862288A111128831603134C
:1000F800181218119B15813099009A018312031365
:100108009817831603131817181498168C160B17BC
:1001180083120313181318160800F6009328831681
:100128000313981C9828992893289A2876088312EC
:10013800031399000800F901FA018A11AC208A1109
:10014800F7008A11AD208A11F80083018A114B2823
:04015800FF34FF343D
:02400E00C4F0FC
:00000001FF
