:040000008A11112828
:10000800FE00030EF3000408F4000A08F50083124A
:1000180003137F08F6008A1113288A118A280D1EF7
:10002800162817282628831603130D1E1C281D289A
:100038002628831203130D12831603170C11831637
:1000480003130D128B1C29282A283A280B1E2D2849
:100058002E283A2883120608F2007208F0000130B0
:100068008A1175208A118B100B123A287608831290
:100078000313FF0075088A0074088400730E830058
:10008800FE0E7E0E0900831203179E019F01831640
:1000980003138501F03086008701043083160317A7
:1000A8008C00D0308B008316031381015B280B1A58
:1000B8005E285F285B28023083120313A2000430F5
:1000C800A100BA30A000A00B6728A10B6728A20BDB
:1000D800672864008B100B165B285B285B288A1145
:1000E8001128F1008B137008831203178C00710814
:1000F8008D005530831603178D00AA308D008C149F
:100108008B17831603130D168928080083018A119B
:02011800472876
:02400E00C4F0FC
:00000001FF
