:060000000A128A11122809
:10000800FE00030EF2000408F3000A08F40083124D
:1000180003137F08F5000A128A11102E0A128A119A
:10002800E12F0A128A11C8270A128A1150300A12BF
:100038008A11FC230A128A118312031305120D3048
:100048000A128A1158270A128A11831203130516F5
:100058003028771836286300831203134108FF3AC3
:1000680003192D28771808004108BE003E08C20071
:100078004108BE00BF013E08AD003F08AE009D30FC
:100088000A128A11FC230A128A11FF308312031301
:10009800BE003E08C1005328771859286300831210
:1000A80003134108FF3A031950287718080041083C
:1000B800BE003E08C3004108BE00BF013E08AD00B7
:1000C8003F08AE009D300A128A11FC230A128A11D9
:1000D800FF3083120313BE003E08C100762877184C
:1000E8007C286300831203134108FF3A031973281D
:1000F800771808004108BE003E08C4004108BE0049
:10010800BF013E08AD003F08AE009D300A128A11BB
:10011800FC230A128A11FF3083120313BE003E0823
:10012800C10005120C300A128A1158270A128A11C6
:100138008312031305160330C0008A30BF005630FF
:10014800BE00BE0BA528BF0BA528C00BA528AC2850
:100158001030831203178D00831603170C14000048
:10016800831203170C0883120313BE003E08C50050
:100178001130831203178D00831603170C14000027
:10018800831203170C0883120313BE003E08C6002F
:100198001230831203178D00831603170C14000006
:1001A800831203170C0883120313BE003E08C7000E
:1001B80042084506031DEF2843084606031DEF289D
:1001C80044084706031DEF280712871287130713F1
:1001D8000716C9010800FF30BE003E08C500FF3001
:1001E800BE003E08C600FF30BE003E08C7002030F3
:1001F800831203178D00831603170C140000831253
:1002080003170C0883120313BE003E08C5002130F3
:10021800831203178D00831603170C140000831232
:1002280003170C0883120313BE003E08C6002230D1
:10023800831203178D00831603170C140000831212
:1002480003170C0883120313BE003E08C7004208B8
:100258004506031D3E2943084606031D3E2944085A
:100268004706031D3E29071287128713071307172E
:10027800C9010800FF30BE003E08C500FF30BE00BF
:100288003E08C600FF30BE003E08C700303083126B
:1002980003178D00831603170C140000831203172D
:1002A8000C0883120313BE003E08C50031308312C8
:1002B80003178D00831603170C140000831203170D
:1002C8000C0883120313BE003E08C60032308312A6
:1002D80003178D00831603170C14000083120317ED
:1002E8000C0883120313BE003E08C70042084506E7
:1002F800031D8D2943084606031D8D29440847061A
:10030800031D8D2907128712871307138716C90142
:100318000800FF30BE003E08C500FF30BE003E08A2
:10032800C600FF30BE003E08C7000A128A11C8275F
:100338000A128A1167300A128A11FC230A128A11DA
:100348008312031307128712871307130130BE00A5
:100358003E08C9074908043A031DEA2986300A12EB
:100368008A11FC230A128A1183120313C90103306C
:10037800C0008A30BF005630BE00BE0BC129BF0B7B
:10038800C129C00BC129C829033083120313C00037
:100398008A30BF005630BE00BE0BD029BF0BD02913
:1003A800C00BD029D729831203130712871287138A
:1003B800071387170A128A1171260A128A118312E3
:1003C800031387130A128A110F22080077300A12C2
:1003D8008A11FC230A128A11033083120313C00006
:1003E8008A30BF005630BE00BE0BF829BF0BF82973
:1003F800C00BF829FF29033083120313C0008A3089
:10040800BF005630BE00BE0B072ABF0B072AC00B21
:10041800072A0E2A08000B120A128A11C8270A1284
:100428008A110B300A128A11FC230A128A118312CC
:10043800031305120D300A128A1158270A128A115D
:10044800831203130516831203134108FF3A031D91
:100458002F2A6300272A4108BB003B08F60010300A
:100468000A128A11AB270A128A11F7183D2A63006B
:10047800392AF710831203134108BB00BC013B085B
:10048800AD003C08AE009D300A128A11FC230A1206
:100498008A11FF3083120313BB003B08C10083128B
:1004A80003134108FF3A031D5B2A6300532A4108DE
:1004B800BB003B08F60011300A128A11AB270A125A
:1004C8008A11F718692A6300652AF7108312031343
:1004D8004108BB00BC013B08AD003C08AE009D30A4
:1004E8000A128A11FC230A128A11FF30831203139D
:1004F800BB003B08C100831203134108FF3A031DE8
:10050800872A63007F2A4108BB003B08F6001230A7
:100518000A128A11AB270A128A11F718952A630062
:10052800912AF710831203134108BB00BC013B0852
:10053800AD003C08AE009D300A128A11FC230A1255
:100548008A11FF3083120313BB003B08C10003303C
:10055800BD008A30BC005630BB00BB0BB12ABC0BB7
:10056800B12ABD0BB12AB82A0A128A11C8270A1261
:100578008A1122300A128A11FC230A128A11831264
:1005880003134108FF3A031DCB2A6300C32A41081D
:10059800BB003B08F60020300A128A11AB270A126A
:1005A8008A11F718D92A6300D52AF7108312031382
:1005B8004108BB00BC013B08AD003C08AE009D30C3
:1005C8000A128A11FC230A128A11FF3083120313BC
:1005D800BB003B08C100831203134108FF3A031D07
:1005E800F72A6300EF2A4108BB003B08F6002130D8
:1005F8000A128A11AB270A128A11F718052B630011
:10060800012BF710831203134108BB00BC013B0800
:10061800AD003C08AE009D300A128A11FC230A1274
:100628008A11FF3083120313BB003B08C1008312F9
:1006380003134108FF3A031D232B63001B2B4108BA
:10064800BB003B08F60022300A128A11AB270A12B7
:100658008A11F718312B63002D2BF710831203131F
:100668004108BB00BC013B08AD003C08AE009D3012
:100678000A128A11FC230A128A11FF30831203130B
:10068800BB003B08C1000330BD008A30BC005630B7
:10069800BB00BB0B4D2BBC0B4D2BBD0B4D2B542B5B
:1006A8000A128A11C8270A128A1139300A128A11C5
:1006B800FC230A128A11831203134108FF3A031D0F
:1006C800672B63005F2B4108BB003B08F600303006
:1006D8000A128A11AB270A128A11F718752B6300C0
:1006E800712BF710831203134108BB00BC013B08B0
:1006F800AD003C08AE009D300A128A11FC230A1294
:100708008A11FF3083120313BB003B08C100831218
:1007180003134108FF3A031D932B63008B2B4108F9
:10072800BB003B08F60031300A128A11AB270A12C7
:100738008A11F718A12B63009D2BF710831203135E
:100748004108BB00BC013B08AD003C08AE009D3031
:100758000A128A11FC230A128A11FF30831203132A
:10076800BB003B08C100831203134108FF3A031D75
:10077800BF2B6300B72B4108BB003B08F6003230A3
:100788000A128A11AB270A128A11F718CD2B6300B7
:10079800C92BF710831203134108BB00BC013B08A7
:1007A800AD003C08AE009D300A128A11FC230A12E3
:1007B8008A11FF3083120313BB003B08C1000512E6
:1007C8000C300A128A1158270A128A11831203134D
:1007D80005160330BD008A30BC005630BB00BB0B89
:1007E800F32BBC0BF32BBD0BF32BFA2B0B160800CA
:1007F80083120313B4002D30AF002F08B20001306C
:1008080083120313B407FF30340784000A128A11D5
:1008180000250A128A11AF002F08BA00BA08031976
:1008280008003A08253A0319202C3A080A128A11B6
:10083800DD240A128A11032C83120313B301013039
:10084800B407FF30340784000A128A1100250A12FF
:100858008A11BA00003A0319CB2C643A0319382CD0
:100868000D3A0319382C032C32088400831300082E
:10087800B600840A0008B7000230AF002F08B2079C
:10088800B71F4F2C0330AF002F08B304B609B709C0
:10089800B60A0319B70ABA01BA0A3A08053A031997
:1008A800762C3A08AF002F07013E84000A128A11FD
:1008B80000250A128A11B0000A128A1100250A12AC
:1008C8008A11B10031083702031D6C2C300836023A
:1008D800031C762C0130AF002F08BA073A08053AF6
:1008E800031D552C330803390319802C2D300A12A7
:1008F8008A11DD240A128A11831203133A08AF0001
:100908002F08B500FF3083120313AF002F08B50777
:100918003508FF3A0319032C0A30A7000030A80055
:100928003508AF002F07013E84000A128A110025FE
:100938000A128A11A0000A128A1100250A128A11C5
:10094800A1003708A301A3073608A201A2070A12CB
:100958008A11B4260A128A11831203132108AA01E4
:10096800AA072008A901A9070A128A11F4260A125F
:100978008A11831203132708303EB0003008BA00EA
:100988003A080A128A11DD240A128A11862C0800F4
:100998007E088A007F088200CC240A128A1180000F
:1009A800840A04087D0603190034FF0A0319FE0AA5
:1009B800D02C83120313A50025080A128A11842754
:1009C8000800FF34FF34FF34FF34FF34FF34FF34B2
:100A000005308A000408840A820700340134003467
:100A10000A34003464340034E834033410342734A6
:100A20004E346F3476346134733420347334653427
:100A30006E346834613473343A340A345334653470
:100A40006E3468346134203431343A3400344E34F6
:100A50006F347634613473342034733465346E34D7
:100A60006834613473343A340A34533465346E3440
:100A700068346134203432343A3400344E346F34C4
:100A80007634613473342034733465346E346834AE
:100A9000613473343A340A34533465346E34683410
:100AA0006134203433343A340034443469346734A4
:100AB00069347434653420346134203473346534DB
:100AC0006E34683461343A340A34533465346E34E5
:100AD000683461343A340034533465346E346834E5
:100AE0006134203469346E3463346F347234723458
:100AF00065347434613400340A34543465346E34EB
:100B00007434653420346434653420346E346F3486
:100B100076346F3400340A3442346C346F347134B8
:100B200075346534613464346F34213400344534B1
:100B3000733470346534723465342034253464344D
:100B400073340034253464340034033083120313C7
:100B5000A4002408A600051285121430A5007930DF
:100B6000A400A40BB12DA50BB12DB62D8312031338
:100B700026088500851685120730A5007D30A40063
:100B8000A40BC02DA50BC02D83120313851685124F
:100B90004230A400A40BCA2D000083120313851653
:100BA00085124230A400A40BD32D00000230831222
:100BB000031385008516851228300A128A115827DA
:100BC0000A128A11103083120313A400A40BE62D1D
:100BD00000000C300A128A1158270A128A111030AC
:100BE00083120313A400A40BF32D00000A128A1130
:100BF000C8270A128A11103083120313A400A40B11
:100C0000FF2D000006300A128A1158270A128A1195
:100C1000103083120313A400A40B0C2E0000080054
:100C20000D1E1D2E831603130D1E1D2E831203137E
:100C30000D12831603170C11F7140B188B1D502E71
:100C40004130F100EE30F000F00B242EF10B242E99
:100C500000000B1083120313861A362E8614061119
:100C6000861A342EC101362EC101C10A061B422E3E
:100C700086140611061B3E2E02303F2E0330F00074
:100C80007008C100861B4E2E86140611861B4A2E44
:100C900004304B2E0530F0007008C100861006119C
:100CA0000B1A8B1C642E4130F100EE30F000F00B7B
:100CB000572EF10B572E00008B107714831203135D
:100CC0000712871287130713750883120313FF0097
:100CD00074088A0073088400720E8300FE0E7E0E74
:100CE00009008B131F308312031348020318B12E1F
:100CF0000A128A11C8270A128A118312031348089C
:100D0000BB00BC013B08AD003C08AE0092300A12AB
:100D10008A11FC230A128A11033083120313BD00C7
:100D20008A30BC005630BB00BB0B942EBC0B942EFB
:100D3000BD0B942E9B2E033083120313BD008A300B
:100D4000BC005630BB00BB0BA32EBC0BA32EBD0BAF
:100D5000A32EAA2E013083120313BB003B08C80741
:100D6000722EC8018B17080083120313A401A5017A
:100D7000210820040319ED2EA601A60AA11BCC2EE2
:100D800001300310A00DA10DFF3E031DC12E013047
:100D9000F6007608A607BE2E01300310A40DA50D9F
:100DA000FF3E031DCD2E21082302031DD92E20084E
:100DB0002202031CE22E2008A2022108031CA30326
:100DC000A302241401300310A10CA00CFF3E031D4C
:100DD000E32E0130A602031DCC2E2508A101A10798
:100DE0002408A001A0070800831203132808270481
:100DF0000319232FAC01AC0AA81B0A2F01300310E2
:100E0000A70DA80DFF3E031DFF2E0130AB002B08E0
:100E1000AC07FC2E28082A02031D102F27082902E0
:100E2000031C182F2708A9022808031CAA03AA02DA
:100E300001300310A80CA70CFF3E031D192F013031
:100E4000AC02031D0A2F2A08A801A8072908A70138
:100E5000A707080083160317880189018316031367
:100E60008501F93086000F308700831203130712C3
:100E7000871287130713831603178C01D8308B0052
:100E8000E03083160313960081010A128A11A5250A
:100E90000A128A110A128A1115200A128A11771C65
:100EA0004A2F77100A128A110F220A128A114A2F2A
:100EB000F6000D3083120313A000A00B5D2FF0305D
:100EC00083120313A000200885057608A0000430D3
:100ED0000310A00CFF3E031D682F20080F39A1004E
:100EE0002108850485168512F030A00020088505AC
:100EF00076080F39A00020088504851685120D306C
:100F0000A000A00B812F080083120313A4009D2FC3
:100F10000A128A11C827080040300A128A11F427E1
:100F20000800051280300A128A1158270800051699
:100F300024080A128A115827080083120313240870
:100F40000A3A03198C2F063A0319882F013A03191C
:100F5000912F972F080083120313A0008B13831681
:100F600003170C157608831203178C0083120313E2
:100F70002008831203178D005530831603178D0048
:100F8000AA308D008C148B17831603130D160800DE
:100F90008312031305120D30A200A20BCD2F0130D6
:100FA0000A128A1158270A128A1103308312031376
:100FB000A3009730A200A20BDB2FA30BDB2FE02FA7
:100FC0000800F701C801C90183134830FD0004304F
:100FD000FE00E530FF00413084000A128A11D0245F
:100FE00083010A128A112A2F83120313A200051209
:0C0FF0002208803E0A128A1158270800CF
:04400E00E4E0FFFFEC
:00000001FF
