:040000008A11112828
:10000800FE00030EF2000408F3000A08F40083124D
:1000180003137F08F5008A1139298A11742983127C
:1000280003179E019F01831603138101D0308B00B3
:100038004130831203139F006030831603139F001F
:100048000C17051405158701831203138701E3288C
:10005800E32850280130A0070318A10A0030A1079F
:10006800200807078700A50143283A283B28640091
:100078000130F600760883120313A50743282308E6
:10008800803A803C031D4A2822082502031C4D287B
:100098004E2839285028502880308312031307022D
:1000A800031C572858282E287C287C28FF30A007B6
:1000B8000318A10AFF30A107200807078700A60137
:1000C8006F286628672864000130F60076088312D6
:1000D8000313A6076F282308803A803C031D76285F
:1000E80022082602031C79287A2865287C287C287F
:1000F800831203130708FF3A031D832884285A280C
:100108008528A001A101AB280130A0070318A10A86
:100118000030A1072003FF3A07078700A7019E28A0
:100128009528962864000130F60076088312031398
:10013800A7079E282308803A803C031DA52822088B
:100148002702031CA828A9289428AB28AB288130AB
:100158008312031307020318B228B3288828D82863
:10016800D828FF30A0070318A10AFF30A1072003F1
:10017800FF3A07078700A801CB28C228C3286400D4
:100188000130F600760883120313A807CB2823084A
:10019800803A803C031DD22822082802031CD52857
:1001A800D628C128D828D828831203138708031D06
:1001B800DE28DF28B528E028A001A101E3282408CB
:1001C800031DE7285028022902298701F028013059
:1001D800F60076088707F0280708FF3A031DF52878
:1001E800F628EB28FB28FB2801308702FB28870824
:1001F800031DFF280029F828022902292408013AAA
:10020800031907290829E928192919298701112912
:100218000130F6007608870711290708FF3A031D01
:10022800162917290C29192919292408023A03190A
:100238001E291F290A292E292E29FF308700272940
:100248000130870227298708031D2B292C292429F7
:100258002E292E292408033A031933293429212960
:100268009F14E328E3288A1111288B1C3C293D2977
:1002780055298230F100DD30F000F00B4129F10BF7
:10028800412946298B100130F000700883120313AE
:10029800A4072408043A031D522953295529A40107
:1002A80055290C1F5829592969290C131E08F000D3
:1002B800F1010230FF000310F00DF10DFF0B5F2973
:1002C8007008A2007108A30069297508FF00740866
:1002D8008A0073088400720E8300FE0E7E0E0900E9
:1002E800A001A101A201A301A40183018A1113287D
:02400E00C4F0FC
:00000001FF
