:040000008A11112828
:10000800FE00030EF1000408F2000A08F300831250
:1000180003137F08F4008A1113288A1169288C1C9D
:1000280016281728262812118C108514F930F0008C
:100038006400F00B1C282028640083120313851029
:100048009F1426280C1F29282A2835280C131E033C
:10005800FF3AFF3E8316031392008312031312150F
:1000680035287408FF0073088A0072088400710E2E
:100078008300FE0E7E0E09007030831603138F0076
:100088000130831203179E009F010130831203136E
:100098009F002030831603139F00013085008601DE
:1000A8008701831203138C101230920083160313F6
:1000B8008C140C17C0308B00FF309200831203138E
:1000C8001215662866288A111128F501F601F7012C
:0600D80083018A1140289B
:02400E00E4F0DC
:00000001FF
