:060000000A128A11122809
:10000800FE00030EF2000408F3000A08F40083124D
:1000180003137F08F5000A128A119B280A128A1115
:10002800D6287030831603138F00831603178801B0
:10003800890183160313850101308600870107169D
:10004800D8308B008101F61076100A128A11CA2066
:100058000A128A1183120313861085018614342824
:10006800F61C37283828832878287828F610831231
:1000780003138610063093004128761C442845282F
:1000880041287610831203138614861002309300D9
:100098004D28761C502851284D2876107708831251
:1000A800031393005728761C5A285B285728761084
:1000B80077088312031393006128761C6428652847
:1000C800612876108312031386141A30A100F830C1
:1000D800A000A00B6D28A10B6D2864000130F70764
:1000E8000318F80A0030F80700307802FF300319C7
:1000F8007702031C802881283A2883288328023025
:1001080083120313A2000430A100BA30A000A00B90
:100118008B28A10B8B28A20B8B286400013083123B
:1001280003138506342834280A128A1112280B1E54
:100138009E289F28AF288B1CA228A328AF2882308E
:10014800F100DD30F000F00BA728F10BA728AC2850
:100158008B10F614AF28831603138C1DB428B5280A
:10016800BE28831203138C1DBA28BB28BE288C1105
:100178007614BE2875088312FF0074088A00730875
:100188008400720E8300FE0E7E0E09008316031390
:1001980094012130831203139400831603139101F1
:1001A8008C150800F601F701F80183010A128A117B
:0201B800152808
:02400E00C4F0FC
:00000001FF
