:040000008A11112828
:10000800FE00030EF2000408F3000A08F40083124D
:1000180003137F08F5008A11C42A8A11EA2A0430DA
:10002800831203179E009F01043083160313850073
:10003800F03086003F3087000930831203139F0099
:100048004030831603139F00643092008C30831273
:100058000313970095018C109201831603138C14D7
:10006800C0308B00831203131215013090002F301B
:100078008E00F8308F00831603130C14013083129E
:10008800A0002008F7077708A100A20122087A0239
:10009800031D502821087902031842280000F7019F
:1000A8008312031395010130A0002008F707770891
:1000B800A100A20122087A02031D642821087902FE
:1000C800031857280000F70101308312031385062F
:1000D80005187228831203138514752883120313D5
:1000E80085100A3095000130A0002008F70777082E
:1000F800A100A20122087A02031D8428210879029E
:10010800031877280000F7011530831203139500B0
:100118000130A0002008F7077708A100A2012208F3
:100128007A02031D99282108790203188C280000F7
:10013800F7011F308312031395000130A000200837
:10014800F7077708A100A20122087A02031DAE284A
:10015800210879020318A1280000F7012930831229
:10016800031395000130A0002008F7077708A100C5
:10017800A20122087A02031DC32821087902031864
:10018800B6280000F70132308312031395000130BE
:10019800A0002008F7077708A100A20122087A0228
:1001A800031DD828210879020318CB280000F7017D
:1001B8003B308312031395000130A0002008F70795
:1001C8007708A100A20122087A02031DED28210860
:1001D80079020318E0280000F70143308312031363
:1001E80095000130A0002008F7077708A100A201B8
:1001F80022087A02031D0229210879020318F5282A
:100208000000F7014A308312031395000130A00063
:100218002008F7077708A100A20122087A02031D27
:1002280017292108790203180A290000F70151301B
:100238008312031395000130A0002008F707770800
:10024800A100A20122087A02031D2C2921087902A3
:1002580003181F290000F701573083120313950074
:100268000130A0002008F7077708A100A2012208A2
:100278007A02031D41292108790203183429000054
:10028800F7015B308312031395000130A0002008AA
:10029800F7077708A100A20122087A02031D562950
:1002A80021087902031849290000F7015F308312F9
:1002B800031395000130A0002008F7077708A10074
:1002C800A20122087A02031D6B292108790203186A
:1002D8005E290000F7016230831203139500013094
:1002E800A0002008F7077708A100A20122087A02D7
:1002F800031D802921087902031873290000F701DA
:1003080063308312031395000130A0002008F7071B
:100318007708A100A20122087A02031D9529210865
:100328007902031888290000F70164308312031347
:1003380095000130A0002008F7077708A100A20166
:1003480022087A02031DAA292108790203189D2987
:100358000000F70163308312031395000130A000F9
:100368002008F7077708A100A20122087A02031DD6
:10037800BF29210879020318B2290000F701623069
:100388008312031395000130A0002008F7077708AF
:10039800A100A20122087A02031DD42921087902AA
:1003A8000318C7290000F7015F3083120313950073
:1003B8000130A0002008F7077708A100A201220851
:1003C8007A02031DE929210879020318DC290000B3
:1003D800F7015B308312031395000130A000200859
:1003E800F7077708A100A20122087A02031DFE2957
:1003F800210879020318F1290000F7015730831208
:10040800031395000130A0002008F7077708A10022
:10041800A20122087A02031D132A2108790203186F
:10042800062A0000F70151308312031395000130AA
:10043800A0002008F7077708A100A20122087A0285
:10044800031D282A2108790203181B2A0000F70136
:100458004A308312031395000130A0002008F707E3
:100468007708A100A20122087A02031D3D2A21086B
:1004780079020318302A0000F7014330831203136E
:1004880095000130A0002008F7077708A100A20115
:1004980022087A02031D522A210879020318452AE4
:1004A8000000F7013B308312031395000130A000D0
:1004B8002008F7077708A100A20122087A02031D85
:1004C800672A2108790203185A2A0000F7013230F6
:1004D8008312031395000130A0002008F70777085E
:1004E800A100A20122087A02031D7C2A21087902B0
:1004F80003186F2A0000F7012930831203139500AF
:100508000130A0002008F7077708A100A2012208FF
:100518007A02031D912A210879020318842A00000F
:10052800F7011F308312031395000130A000200843
:10053800F7077708A100A20122087A02031DA62A5C
:10054800210879020318992A0000F701153083124F
:10055800031395000130A0002008F7077708A100D1
:10056800A20122087A02031DBB2A21087902031876
:10057800AE2A0000F7010A308312031395004228BF
:100588008C1CCB2A831603138C108716071683122C
:100598000C1CDF2A0C102F308E00F8308F001E083C
:1005A800183EF000003003180130F1007008F9001F
:1005B8007108FA009F147508FF0074088A00730810
:1005C8008400720E8300FE0E7E0E0900F601F7010C
:1005D800F8018A11F7228A11F9008A11F822FA0023
:0A05E80083018A111328E634003461
:02400E00C2F0FE
:00000001FF
